:100000000C942A000C948E0E0C94B70E0C94E00EF7
:100010000C9447000C9447000C9447000C9459052D
:100020000C9447000C9447000C9447000C94470034
:100030000C9447000C9447000C9447000C94470024
:100040000C9447000C9447000C9447000C94470014
:100050000C94470011241FBECFE5D8E0DEBFCDBF12
:1000600010E0A0E6B0E0EAE0F3E202C005900D92F5
:10007000AA38B107D9F715E0AAE8B0E001C01D928F
:10008000A232B107E1F70E94EF100C9483110C9497
:100090000000C298C198982F907F9BBBC09A20ED1A
:1000A00037E0F9013197F1F7C098F9013197F1F78D
:1000B0008295807F8BBBC09AC9010197F1F7C098E8
:1000C000C9010197F1F70895C29AC198982F907FBE
:1000D0009BBBC09A20ED37E0F9013197F1F7C0984A
:1000E000E1E0F0E03197F1F78295807F8BBBC09A19
:1000F000C9010197F1F7C098C9010197F1F7089577
:100100000F931F9380EF8ABB87E087BB80E991E064
:1001100028EC30E0F9013197F1F70197D9F783E343
:100120000E94490000ED17E0C8010197F1F782E352
:100130000E944900C8010197F1F788E20E94490036
:10014000C8010197F1F78EE00E944900C8010197AC
:10015000F1F781E00E94490080EA9FE00197F1F702
:1001600086E00E9449001F910F910895CF93DF937D
:10017000EC0102C00E94640089918823D9F7DF91C5
:10018000CF9108958F70662311F4805805C06130B7
:1001900011F080E801C080540E94490008958F92B8
:1001A0009F92AF92BF92CF92DF92EF92FF920F9306
:1001B0001F93DF93CF93CDB7DEB7AC970FB6F8940C
:1001C000DEBF0FBECDBF7B018C01FE0131968CE2FC
:1001D000DF011D928A95E9F78FEF9FEFAFEFBFEF39
:1001E00089839A83AB83BC8317FD06C080E090E0CF
:1001F000AA24BB24650117C08DE290E0A0E0B0E026
:1002000089839A83AB83BC8310950095F094E09426
:10021000E11CF11C011D111D81E090E051E0A52EB3
:10022000B12CC12CD12C880F991F880F991F4E011A
:100230000894811C911C880E991E23C0C801B70127
:100240002AE030E040E050E00E942711605D7F4FDF
:100250008F4F9F4FF40161937193819391934F015D
:10026000C801B7012AE030E040E050E00E942711C9
:10027000C901DA017C018D010894A11CB11CC11CCB
:10028000D11CE114F10401051105C1F689819A819F
:10029000AB81BC818D97A105B10559F58DE20E9416
:1002A0006400C501880F991F880F991F8E010F5F89
:1002B0001F4F080F191FEE24FF2414C0F80180817E
:1002C0009181A281B3818F3FFFEF9F07FFEFAF07BF
:1002D000FFEFBF0711F00E9464000894E11CF11CBD
:1002E00004501040C5018E199F091816190634F3E1
:1002F00033C0A114B104C104D10459F165010894BB
:10030000C108D108C601880F991F880F991F8E0157
:100310000F5F1F4F080F191FEE24FF2414C0F801B0
:1003200080819181A281B3818F3FFFEF9F07FFEF13
:10033000AF07FFEFBF0711F00E9464000894E11CB3
:10034000F11C04501040C6018E199F0997FFE7CF9A
:1003500003C080E30E946400AC960FB6F894DEBF41
:100360000FBECDBFCF91DF911F910F91FF90EF9006
:10037000DF90CF90BF90AF909F908F9008950F9394
:100380001F93CF93DF938C016830B0F4660F660F34
:10039000660F862F805C0E944900C0E0D0E0F80123
:1003A000EC0FFD1F80810E9464002196C830D105AA
:1003B000B1F780E80E944900DF91CF911F910F9122
:1003C000089581E00E94490080EA9FE00197F1F7DB
:1003D00008958FB780688FBF08958FB78F778FBFCD
:1003E0000895EF92FF920F931F93FC010580F68111
:1003F000E02DE680F7808701045F1F4FC8010E944F
:1004000058048BEB90E0B8010E94FA0320E0E091E1
:100410008A00F0918B00D70156969C918689981797
:1004200008F021E0822F1F910F91FF90EF90089527
:10043000FF920F931F93CF93DF9399E0F92E21C082
:10044000F894E091C000F091C10006811781C801C5
:100450000C960E9458047894E8012296CE010E94DE
:100460005804F801968980918C00891710F49093B4
:100470008C009F9DC00111248D569F4FBE010E948C
:10048000FA038091BB008823D9F60E94BC08209112
:100490008D0030918E00821B930B9093900080937F
:1004A0008F0089E0F82E53C00196909392008093BC
:1004B0009100215030403093900020938F00892B81
:1004C00009F03EC02091B7003091B8008091B9008A
:1004D0009091BA009093B8008093B7003093BA001F
:1004E0002093B9002DC00580F681E02DC681D7810B
:1004F00020919100309192008A819B8128173907C1
:1005000030F1F8948E010E5F1F4FC8010E9458040D
:100510008C899D89892B21F0CE010C960E9458046C
:1005200078949E8980918C00891710F490938C00A8
:100530009F9DC00111248D569F4FB8010E94FA0360
:10054000E091B700F091B8008081882361F6209196
:100550008F00309190008091910090919200211530
:10056000310509F0A1CF90938E0080938D0090917A
:100570008C0029E006C0992319F410928C0032C037
:100580009150929FD0011124AD56BF4F8C9188237A
:1005900091F390938C001196ED91FC91129702804B
:1005A000F381E02D1296FC93EE931197CD01039603
:1005B000E817F90731F48281938112969C938E9308
:1005C00011971196ED91FC9112970680F781E02D1D
:1005D000F0938B00E0938A0020813181CF016789FD
:1005E000F9010995DF91CF911F910F91FF90089527
:1005F0000F931F93CF93DF93EB0100919100109124
:100600009200080F191F80918A0090918B0002962A
:100610000E945804E0918A00F0918B0013830283BA
:100620008091910090919200BF016E5F7F4F0817FB
:10063000190728F48091B9009091BA0004C0809104
:10064000B7009091B8000E942304209749F0609170
:100650008A0070918B00645F7F4FCE010E9423045B
:10066000DF91CF911F910F910895AF92BF92CF92DA
:10067000DF92EF92FF920F931F93CF93DF936C0162
:10068000B62EA42E8AE190E00E94BF03EC010097F1
:1006900011F48FEF59C080918A0090918B00892BC3
:1006A00021F5D0938B00C0938A0083E990E00E94EB
:1006B000E6038CE990E00E94E60325EAE22E20E0C2
:1006C000F22EC7010E94E6030EEA10E0C8010E9464
:1006D000E6038BEB90E00E94E603F092B800E09214
:1006E000B7001093BA000093B900EB2CBB2011F0B7
:1006F000EE24E394198E188EEE8AAF8AFE01C19221
:10070000D1928F01CF010E94F603CE010C960E9478
:10071000F603D987C887DB8BCA8B85E090E08E19FA
:1007200091099D878C879E8980918C00891710F490
:1007300090938C0089E0989FC00111248D569F4FA3
:10074000B8010E94FA0381E0DF91CF911F910F91D0
:10075000FF90EF90DF90CF90BF90AF9008950895F5
:100760001092C5001092C400089528EE33E08091E5
:10077000C4009091C500281B390BC90108950F933F
:100780001F93CF93DF938C010E94B6088091C40021
:100790009091C5009801280F391F43E0283E340787
:1007A00058F48217930740F4EC01CA53DF4F30939B
:1007B000C5002093C40002C0C0E0D0E00E94F30A4C
:1007C000CE01DF91CF911F910F910895FC019C0103
:1007D0002D5F3F4F328321838FEF9FEF948383837D
:1007E000368325833087278310820895FC01118684
:1007F00010860895CF93DF93AC01DB01EC012981D2
:100800003A81F9018281938113969C938E9312977A
:1008100089819A8115969C938E9314970280F38117
:10082000E02D75836483E9017B836A83FA01728317
:10083000618319965C934E93189780818F5F8083B4
:10084000DF91CF910895CF93DF939C01EB01488115
:1008500059818FEF4F3F580721F4F901A781B085E7
:1008600010C0D901139604C012960D90BC91A02D12
:100870001296ED91FC911397808191814817590749
:1008800098F71296ED91FC911397FB83EA83D58339
:10089000C483BD83AC831396DC93CE9312973987C0
:1008A0002887F90180818F5F8083DF91CF91089540
:1008B000CF93DF93DC011296ED91FC911397149680
:1008C0008D919C911597958384831496CD91DC919D
:1008D0001597FB83EA831896ED91FC911997818116
:1008E00092818A179B0711F4D283C18319961C92B7
:1008F0001E921897808181508083DF91CF91089557
:10090000FC0191E1908322E2229383E3829362933C
:100910007293129280E88293129282E0829383E033
:10092000829384E0829385E0829386E0829387E0DD
:10093000829388E0829389E0829380E1829392930C
:1009400082E1829383E1829384E1829385E18293C1
:1009500086E1829387E1829388E1829389E18293A1
:1009600080E2829381E28293229383E28293429394
:10097000529386E2829387E2829388E2829389E2AD
:10098000829380E3829381E382933197CF0108952C
:100990001BBC8CE78ABD8BE08EBD89B7806189BFA7
:1009A000A091AE04B091AF04CD91CDBFDD91DEBF7B
:1009B000FF91EF91DF91CF91BF91AF919F918F9177
:1009C0007F916F915F914F913F912F911F910F9167
:1009D000FF90EF90DF90CF90BF90AF909F908F905F
:1009E0007F906F905F904F903F902F901F900F904F
:1009F0000FBE0F90089581E0089508950F920FB6ED
:100A0000F8940F921F9211242F923F924F925F926F
:100A10006F927F928F929F92AF92BF92CF92DF920E
:100A2000EF92FF920F931F932F933F934F935F93F8
:100A30006F937F938F939F93AF93BF93CF93DF93E6
:100A4000EF93FF93A091AE04B091AF040DB60D9259
:100A50000EB60D920E949E090E94D008A091AE048D
:100A6000B091AF04CD91CDBFDD91DEBFFF91EF918D
:100A7000DF91CF91BF91AF919F918F917F916F91B6
:100A80005F914F913F912F911F910F91FF90EF90A8
:100A9000DF90CF90BF90AF909F908F907F906F909E
:100AA0005F904F903F902F901F900F900FBE0F9030
:100AB00008950E94FE0418950F920FB6F8940F92B5
:100AC0001F9211242F923F924F925F926F927F92CA
:100AD0008F929F92AF92BF92CF92DF92EF92FF924E
:100AE0000F931F932F933F934F935F936F937F9336
:100AF0008F939F93AF93BF93CF93DF93EF93FF9326
:100B0000A091AE04B091AF040DB60D920EB60D9249
:100B10000E94D008A091AE04B091AF04CD91CDBF9A
:100B2000DD91DEBFFF91EF91DF91CF91BF91AF914A
:100B30009F918F917F916F915F914F913F912F91F5
:100B40001F910F91FF90EF90DF90CF90BF90AF90EB
:100B50009F908F907F906F905F904F903F902F90DD
:100B60001F900F900FBE0F900895FC010FB6F894E0
:100B70000F92828D0F900FBE0895FC01828D089513
:100B8000FC01828D90E0882309F491E0892F08957B
:100B9000FC01928D20E0838D981709F421E0822FCB
:100BA00008950F931F938C01FC01808191810E9415
:100BB000AF03C8010E94AF031F910F9108950F93D7
:100BC0001F93CF93DF93EC01FB018A018A8D882369
:100BD00081F14881598141155105A9F08C8D2E81F3
:100BE0003F81280F311D3F832E838A819B812817E7
:100BF000390710F05F834E834C8D6E817F81CF016A
:100C000050E00E9464118A8D81508A8F8D8D8F3FB4
:100C100069F48885882361F0CE0108960E945F09F7
:100C2000882331F081E0F801808303C08F5F8D8FCE
:100C300081E0DF91CF911F910F910895CF93DF93C2
:100C4000EC01842F4C8D4423A1F18823B1F48C81D5
:100C50009D8150E00E9464118C8D2C813D81280F74
:100C6000311D3D832C838A819B812817390708F128
:100C7000888199819D838C831CC08E819F8150E0E7
:100C80000E9464118C8D90E044275527481B590B16
:100C90008E819F81840F951F9F838E832881398148
:100CA0008217930730F48A819B81840F951F9F835D
:100CB0008E838A8D8F5F8A8FDF91CF9108950F93F6
:100CC0001F93CF93DF93EC018A019A8D8B8D981738
:100CD00010F080E017C0CE01422F0E941E068E8DBC
:100CE0008F3F69F48989882361F0CE0141960E9483
:100CF0005F09882331F081E0F801808303C08F5FB2
:100D00008E8F81E0DF91CF911F910F9108950F9306
:100D10001F93CF93DF93EC010FB6F8940F928C01E1
:100D20000F5E1F4F0DC08989882369F0C8010E949A
:100D30005F09882311F00E945B098E8D81508E8F90
:100D40008E8D181684F38FEF8E8F0F900FBE0FB617
:100D5000F8940F928E01085F1F4F0DC0888588237D
:100D600069F0C8010E945F09882311F00E945B09A5
:100D70008D8D81508D8F8D8D181684F38FEF8D8F13
:100D80000F900FBEDF91CF911F910F9108957F9229
:100D90008F929F92AF92BF92CF92DF92EF92FF928B
:100DA0000F931F93DF93CF9300D000D00F92CDB756
:100DB000DEB78C01962E872E5D834C83722E91E1D7
:100DC000C92ED12CC00ED11E20E07E010894E11C5A
:100DD000F11C84E0A82EB12CAC0EBD1E01C021E098
:100DE0000FB6F8940F92F801828D882309F43EC063
:100DF000E680F7804081518141155105B1F0848D25
:100E00009701280F311D378326838281938128170C
:100E1000390710F057834683F801448D6681778146
:100E2000892D982D50E00E946411772071F4F8010B
:100E3000828D8150828F80858823A1F0C801089619
:100E40000E945F09813071F40BC0F801F782E682DD
:100E50008189882339F0C6010E945F09882311F037
:100E60000E945C050F900FBE81E04AC08C819D817D
:100E7000892B19F40F900FBE42C0222319F4C70129
:100E80000E9412090F900FBE0E94B6080FB6F89488
:100E90000F92F801858D8F3F09F4158EF801868D2C
:100EA0008F3F09F4168E0F900FBEC701B5010E9447
:100EB0001D098823F9F40FB6F8940F92F801828D7A
:100EC0000F900FBE882381F46C817D81C6010E9442
:100ED000C70AC8010E9487060E94F30A882309F006
:100EE0007ECF0E945C057BCFC8010E9487060E94CE
:100EF000F30A75CFC8010E9487060E94F30A80E0BA
:100F00000F900F900F900F900F90CF91DF911F9146
:100F10000F91FF90EF90DF90CF90BF90AF909F9098
:100F20008F907F9008957F928F929F92AF92BF9201
:100F3000CF92DF92EF92FF920F931F93DF93CF93A5
:100F400000D000D00F92CDB7DEB78C016B015D836E
:100F50004C83722E48E0E42EF12CE80EF91E20E0BE
:100F60005E010894A11CB11C34E0832E912C8C0EE0
:100F70009D1E01C021E00FB6F8940F92F801928DEA
:100F8000838D9817A8F4C801B601472D0E941E064C
:100F9000F8018189882341F0C80141960E945F09C8
:100FA000813011F40E945C050F900FBE81E04CC0AF
:100FB0008C819D81892B19F40F900FBE44C0222390
:100FC00019F4C5010E9412090F900FBE0E94B608C5
:100FD0000FB6F8940F92F801858D8F3F09F4158EA6
:100FE000F801868D8F3F09F4168E0F900FBEC50154
:100FF000B4010E941D09882309F50FB6F8940F92D9
:10100000F801928D0F900FBEF801838D981781F42F
:101010006C817D81C7010E94C70AC8010E948706B2
:101020000E94F30A882309F0A5CF0E945C05A2CF95
:10103000C8010E9487060E94F30A9CCFC8010E9443
:1010400087060E94F30A80E00F900F900F900F9098
:101050000F90CF91DF911F910F91FF90EF90DF9054
:10106000CF90BF90AF909F908F907F900895AF9258
:10107000BF92CF92DF92EF92FF920F931F93CF9385
:10108000DF93B82EA62E882309F442C08FE190E0AA
:101090000E94BF03EC010097D9F1EB2CFF24CA2C6E
:1010A000DD24CE9C8001CF9C100DDE9C100D112400
:1010B000C80101960E94BF039C0199838883009711
:1010C00021F1080F191F1B830A831A8E9D838C83BD
:1010D0000894E108F108EC9CC001ED9C900DFC9C8B
:1010E000900D1124280F391F3F832E83BB8EAC8EA9
:1010F0008FEF8D8F8E8FCE0108960E94E603CE0172
:1011000041960E94E6039E0105C0CE010E94AF03F6
:1011100020E030E0C901DF91CF911F910F91FF9046
:10112000EF90DF90CF90BF90AF9008951F93162F50
:1011300060E00E943708FC01009709F0128FCF0190
:101140001F910895FC01828593858151954059F442
:101150008489958924E08F3F920729F020E0892B2C
:1011600019F421E001C020E0822F08958091B40499
:101170008F5F8093B40408950FB6F8940F92209176
:10118000B2043091B3040F900FBEC90108952091AD
:10119000B2043091B304C90108958091B704089551
:1011A0008091B404882351F081E08093B0040895C5
:1011B0008091B50481508093B50401C099E0E0911D
:1011C000B504E99FF0011124E454FB4F808188238A
:1011D00079F39091B50489E0989FD0011124A4542B
:1011E000BB4F1196ED91FC9112970280F381E02D97
:1011F0001296FC93EE931197CD010396E817F90729
:1012000031F48281938112969C938E93119711965B
:10121000ED91FC911297868197819093AF04809312
:10122000AE040895FC018091B10480838091B204E2
:101230009091B304928381830895FC01DB010FB682
:10124000F8940F924D915C9111978FEF4F3F580793
:1012500061F19091B1048081981749F02091B20416
:101260003091B304818192812817390700F580916C
:10127000B2049091B30421813281821B930B8417B5
:101280009507A8F48091B2049091B304281B390B00
:10129000240F351F2D933C938091B104808380915E
:1012A000B2049091B3049283818380E001C081E015
:1012B0000F900FBE089581E08093B00408950F93BE
:1012C0001F93CF93DF93FC010580F681E02D06810B
:1012D0001781E8012C96CE010E9458048091B40435
:1012E0008823A9F4E8012296CE010E945804D8016F
:1012F00056969C918091B504891710F49093B5048B
:1013000089E0989FC001112484549B4F02C08FEF45
:1013100094E0BE010E94FA03E091AE04F091AF04A4
:1013200020E0D80156969C918689981708F021E014
:10133000822FDF91CF911F910F910895FF920F930C
:101340001F93CF93DF938091B404882309F08FC05B
:101350008091B2049091B30401969093B30480936A
:10136000B2048091B2049091B304892B79F5209155
:10137000FB043091FC048091FD049091FE04909355
:10138000FC048093FB043093FE042093FD048091C1
:10139000B1048F5F8093B104E091FB04F091FC04F1
:1013A0008081882319F48FEF9FEF0CC0E091FB043C
:1013B000F091FC040580F681E02D0680F781E02D98
:1013C0008281938190938800809387002091B2045A
:1013D0003091B304809187009091880028173907D5
:1013E00008F44AC089E0F82EE091FB04F091FC0477
:1013F0008081882339F48FEF9FEF9093880080934A
:1014000087003AC0E091FB04F091FC040580F6816E
:10141000E02DC681D7812A813B818091B2049091D1
:10142000B3048217930728F4309388002093870031
:1014300023C08E010E5F1F4FC8010E9458048C8983
:101440009D89892B21F0CE010C960E9458049E891B
:101450008091B504891710F49093B5049F9DC00145
:10146000112484549B4FB8010E94FA03BDCF809190
:10147000B6048F5F8093B604DF91CF911F910F91D7
:10148000FF900895DF92EF92FF920F931F93CF93F7
:10149000DF93EC018A859B858151954091F58C897C
:1014A0009D8924E08F3F920761F1892B51F533C06C
:1014B000DE88E091AE04F091AF04068992E0E92E57
:1014C000F12CEC0EFD1EC7010E9458046E8980911C
:1014D000B504861710F46093B50410E0D01608F038
:1014E00011E089E0689FC001112484549B4FB7012B
:1014F0000E94FA0307C02C968FEF94E0BE010E9471
:10150000FA0310E0812FDF91CF911F910F91FF908F
:10151000EF90DF9008958091B404882349F2EBCFD7
:10152000CF93DF93EC01E091AE04F091AF0493838D
:1015300082838091B2049091B304C817D90768F4EC
:101540008091FD049091FE046091AE047091AF040F
:101550006E5F7F4F0E94230417C08091FB0490911F
:10156000FC046091AE047091AF046E5F7F4F0E94E7
:1015700023048091870090918800C817D90720F430
:10158000D0938800C0938700DF91CF910895CF93C7
:10159000DF93EB016091AE047091AF04645F7F4F05
:1015A0000E9423048091AE049091AF0402960E94A1
:1015B00058048FEFCF3FD80759F46091AE04709173
:1015C000AF046E5F7F4F81E195E00E94FA0308C08F
:1015D0008091B2049091B3048C0F9D1F0E94900AD9
:1015E000DF91CF910895CF92DF92FF920F931F93D7
:1015F000DF93CF930F92CDB7DEB70FB6F8940F926B
:101600008091B40481508093B4048091B404882301
:1016100009F058C08091B704882309F453C0198297
:1016200029E0F22E2DC0E0910405F0910505C68059
:10163000D780C6010C960E94580486010E5F1F4F8A
:10164000C8010E945804D60156969C918091B50419
:10165000891710F49093B5049F9DC0011124845400
:101660009B4FB8010E94FA03E091AE04F091AF04E1
:10167000D60156969C918689981710F0B1E0B983EF
:101680008091FF04882379F68091B604882341F481
:101690000CC00E949E098091B60481508093B604CC
:1016A0008091B6048823A9F707C0E981E13021F0D1
:1016B0008091B004813031F41092B0040E945C0536
:1016C00081E001C080E00F900FBE0F90CF91DF91BD
:1016D0001F910F91FF90DF90CF9008950F931F936C
:1016E000CF93DF93EC01009709F43CC08091AE04E6
:1016F0009091AF04C817D907A9F10FB6F8940F92CB
:101700008A859B8581519540F1F48C899D8924E0DF
:101710008F3F9207C1F0892BB1F418C09093B504A4
:1017200089E0989FC001112484549B4FB8010E9406
:10173000FA03E091AE04F091AF049E898689981770
:1017400010F00E945C050F900FBE0CC08E010E5F62
:101750001F4FC8010E9458049E898091B5048917C3
:10176000E8F2DECFDF91CF911F910F910895EF92B4
:10177000FF920F931F93CF93DF938C010FB6F894D2
:101780000F928091AE049091AF040817190719F4D5
:1017900000E010E003C00115110529F4C091AE046A
:1017A000D091AF0401C0E80132E0E32EF12CEC0E41
:1017B000FD1EC7010E9458048C899D89892B21F048
:1017C000CE010C960E94580481E195E0B7010E9479
:1017D000FA030F900FBE012BA1F48091B804882367
:1017E00019F00E945C050DC0909111058091B7041D
:1017F000981729F41092AF041092AE0402C00E9410
:10180000D008DF91CF911F910F91FF90EF90089535
:101810000F931F93CF93DF93EC010097C9F0809152
:10182000B4048F5F8093B4040091B2041091B304A8
:101830008091AE049091AF0402960E945804CE01AC
:10184000800F911F0E94900A0E94F30A882311F4CE
:101850000E945C05DF91CF911F910F910895CF9366
:10186000DF93FC01EB018091B4048F5F8093B4049B
:1018700020813181C20FD31F8091B2049091B304B3
:101880008217930728F4C217D30728F020E00CC072
:10189000C217D30740F08091B2049091B30420E0C6
:1018A0008C179D0708F421E0D183C083222351F0D7
:1018B0008091AE049091AF0402960E945804CE012C
:1018C0000E94900A0E94F30A882311F40E945C058A
:1018D000DF91CF910895EF92FF920F931F93CF93D3
:1018E000DF938C010FB6F8940F928091AE04909123
:1018F000AF040817190719F400E010E003C0011540
:10190000110529F4C091AE04D091AF0401C0E801E3
:1019100042E0E42EF12CEC0EFD1EC7010E9458049B
:101920008C899D89892B21F0CE010C960E94580448
:1019300088E095E0B7010E94FA038091B9048F5FB7
:101940008093B9048091BA048F5F8093BA040F909A
:101950000FBE8091B804882321F0012B11F40E945E
:101960005C05DF91CF911F910F91FF90EF9008954B
:10197000F8941092B8040E94FD0408950F931F93E9
:101980008091B9048823E1F38091B4048F5F809340
:10199000B404109108050E94F30A112389F30FB6CD
:1019A000F8940F92E0910D05F0910E0506811781D4
:1019B000C80102960E9458048091B7048150809318
:1019C000B7048091B90481508093B9040F900FBE81
:1019D000F8018789908D0E94AF03C8010E94AF0370
:1019E000CFCF2F923F924F925F927F928F929F9292
:1019F000AF92BF92CF92DF92EF92FF920F931F931D
:101A0000CF93DF931C014B015A012901702EE6018F
:101A100081E290E00E94BF036C01009771F0209773
:101A200021F4C5010E94BF03EC01F601D08FC78BE2
:101A3000209729F4C6010E94AF038FEFC3C0CE01E7
:101A400065EA70E0A5010E946D110894A108B10833
:101A5000F601C789D08DCA0DDB1DC6014996B401B8
:101A600048E050E00E947411F60110A2072DF4E046
:101A7000F71508F404E0F601068B62E0A62EB12CFF
:101A8000AC0CBD1CC5010E94F603C6010C960E9459
:101A9000F603F601D186C08685E090E0801B9109AF
:101AA00095878487D38AC28ACE01B101A2010E94A0
:101AB0008004F60191838083E114F10419F0F701A9
:101AC000D182C0820FB6F8940F928091B7048F5FD5
:101AD0008093B7048091AE049091AF04892B99F55F
:101AE000D092AF04C092AE048091B7048130D1F59A
:101AF000CCEBD4E0CE010E94E6032996F4E0C93E87
:101B0000DF07C1F759EEE52E54E0F52EC7010E941C
:101B1000E60302EF14E0C8010E94E6038FEF94E0B1
:101B20000E94E60388E095E00E94E60381E195E0EB
:101B30000E94E603F092FC04E092FB041093FE0482
:101B40000093FD040FC08091B804882359F4E091FC
:101B5000AE04F091AF048689781620F0D092AF04DD
:101B6000C092AE04F60196898091BB04891710F4E7
:101B70009093BB048091BA048F5F8093BA04F601FE
:101B800096898091B504891710F49093B504F601F5
:101B9000868929E0829FC001112484549B4FB5019E
:101BA0000E94FA030F900FBE8091B804882349F079
:101BB000E091AE04F091AF048689871510F40E947D
:101BC0005C0581E0DF91CF911F910F91FF90EF9025
:101BD000DF90CF90BF90AF909F908F907F905F905D
:101BE0004F903F902F900895AF92BF92CF92DF9287
:101BF000EF92FF920F938EEB9CE060E670E04AEF6D
:101C000050E020E030E000E0EE24FF24CC24DD248E
:101C1000AA24BB240E94F10C813049F4F8948093EB
:101C2000B8041092B3041092B2040E94C8040F9139
:101C3000FF90EF90DF90CF90BF90AF9008958130EC
:101C400041F0813018F0823059F407C08BB78064BE
:101C500002C08BB780688BBF08958BB780628BBF43
:101C60000895813041F0813018F0823059F407C076
:101C70008BB78F7B02C08BB78F778BBF08958BB7E5
:101C80008F7D8BBF0895813009F1813020F0823043
:101C900009F043C037C0613051F0613028F0623044
:101CA00061F06330D1F50CC085B78E7F02C085B777
:101CB000816085BF85B78D7F23C085B78E7F02C0C9
:101CC00085B7816085BF85B782601AC0613051F0E9
:101CD000613028F0623061F06330F9F40CC085B7F0
:101CE0008B7F02C085B7846085BF85B7877F08C0BA
:101CF00085B78B7F02C085B7846085BF85B7886054
:101D000085BF0895623011F0633021F484B78F7B72
:101D100084BF089584B78F7B84BF08951F920F926C
:101D20000FB60F9211242F933F934F935F936F93AE
:101D30007F938F939F93AF93BF93EF93FF93E09124
:101D40001A05F0911B05309709F00995FF91EF9165
:101D5000BF91AF919F918F917F916F915F914F91C3
:101D60003F912F910F900FBE0F901F9018951F92CB
:101D70000F920FB60F9211242F933F934F935F93BF
:101D80006F937F938F939F93AF93BF93EF93FF9343
:101D9000E0911C05F0911D05309709F00995FF9120
:101DA000EF91BF91AF919F918F917F916F915F91D3
:101DB0004F913F912F910F900FBE0F901F9018954C
:101DC0001F920F920FB60F9211242F933F934F93B0
:101DD0005F936F937F938F939F93AF93BF93EF9393
:101DE000FF93E0911C05F0911D05309709F00995CE
:101DF000FF91EF91BF91AF919F918F917F916F91E3
:101E00005F914F913F912F910F900FBE0F901F90B8
:101E10001895813051F0813018F0823079F40AC081
:101E200070931B0560931A05089570931D056093C8
:101E30001C05089570931F0560931E050895413099
:101E4000B1F5813099F0813030F08230D1F08330BB
:101E500009F065C021C02AB381E090E002C0880F7C
:101E6000991F6A95E2F7282B2ABB089527B381E0D2
:101E700090E002C0880F991F6A95E2F7282B27BBD4
:101E8000089524B381E090E002C0880F991F6A95FD
:101E9000E2F7282B24BB089521B381E090E002C033
:101EA000880F991F6A95E2F7282B21BB089581308E
:101EB00099F0813028F08230D9F0833081F524C048
:101EC0002AB381E090E002C0880F991F6A95E2F77B
:101ED000809582238ABB089527B381E090E002C0F9
:101EE000880F991F6A95E2F78095822387BB089532
:101EF00024B381E090E002C0880F991F6A95E2F751
:101F00008095822384BB089521B381E090E002C0D4
:101F1000880F991F6A95E2F78095822381BB089507
:101F2000813049F0813028F0823039F0833041F43B
:101F300006C06ABB089567BB089564BB089561BB82
:101F400008954130B1F5813099F0813030F0823020
:101F5000D1F0833009F065C021C02BB381E090E05F
:101F600002C0880F991F6A95E2F7282B2BBB0895B2
:101F700028B381E090E002C0880F991F6A95E2F7CC
:101F8000282B28BB089525B381E090E002C0880F7C
:101F9000991F6A95E2F7282B25BB089522B381E0AB
:101FA00090E002C0880F991F6A95E2F7282B22BBA8
:101FB0000895813099F0813028F08230D9F0833053
:101FC00081F524C02BB381E090E002C0880F991FF7
:101FD0006A95E2F7809582238BBB089528B381E050
:101FE00090E002C0880F991F6A95E2F780958223DE
:101FF00088BB089525B381E090E002C0880F991F47
:102000006A95E2F78095822385BB089522B381E02B
:1020100090E002C0880F991F6A95E2F780958223AD
:1020200082BB0895813049F0813028F0823039F048
:10203000833041F406C06BBB089568BB089565BB4F
:10204000089562BB0895813091F0813028F082308C
:10205000C9F0833061F521C02BB381E090E002C06C
:10206000880F991F6A95E2F728272BBB089528B39C
:1020700081E090E002C0880F991F6A95E2F7282757
:1020800028BB089525B381E090E002C0880F991F16
:102090006A95E2F7282725BB089522B381E090E0F6
:1020A00002C0880F991F6A95E2F7282722BB08957E
:1020B000813051F0813030F0823041F0833079F05E
:1020C00080E0089589B303C086B301C083B390E074
:1020D00002C0959587956A95E2F78170089580B35F
:1020E00090E002C0959587956A95E2F78170089512
:1020F000813051F0813030F0823041F0833041F056
:1021000080E0089589B3089586B3089583B3089550
:1021100080B30895809120059091210560E070E0E2
:1021200040E050E020E00E9493070895CF93DF93B2
:10213000C8ECD0E0809120059091210560E070E02E
:102140004FEF5FEF20E00E94C706813099F785E6E8
:1021500090E00E94B60088E893E1FE013197F1F724
:102160000197D9F70E94E101E5CFCF93DF93C8EC47
:10217000D0E0809120059091210560E070E04FEF64
:102180005FEF20E00E94C706813099F786E790E074
:102190000E94B60088E893E1FE013197F1F70197BC
:1021A000D9F70E94E101E5CF83E062E040E00E94C0
:1021B0001F0F83E062E041E00E94A10F80E062E037
:1021C0000E94430E80E06AE870E10E94090F80E0FF
:1021D0000E941F0E0E94ED010E9480000895AF92A0
:1021E000BF92CF92DF92EF92FF920F930E94D41092
:1021F00081E060E00E94960890932105809320057D
:1022000086E990E160E070E046E950E020E030E0EF
:1022100002E0EE24FF24CC24DD24AA24BB240E9467
:10222000F10C85EB90E160E070E046E950E020E0E1
:1022300030E00E94F10C0E94F40D80E090E00F91DC
:10224000FF90EF90DF90CF90BF90AF90089597FBF5
:10225000092E05260ED057FD04D014D00AD0001C3C
:1022600038F450954095309521953F4F4F4F5F4F33
:102270000895F6F790958095709561957F4F8F4FF3
:102280009F4F0895A1E21A2EAA1BBB1BFD010DC092
:10229000AA1FBB1FEE1FFF1FA217B307E407F50716
:1022A00020F0A21BB30BE40BF50B661F771F881FF2
:1022B000991F1A9469F760957095809590959B0188
:1022C000AC01BD01CF010895FB01DC0102C001900A
:1022D0000D9241505040D8F70895DC0101C06D9334
:1022E00041505040E0F70895FB01DC01415050405F
:1022F00048F001900D920020C9F701C01D92415095
:0A2300005040E0F70895F894FFCF75
:10230A0049444C4500427574746F6E20507265736F
:10231A006564203A4700427574746F6E2050726586
:0A232A00736564203A4400FFFF00D1
:00000001FF
